{
  "contractName": "HelloWorld",
  "abi": [
    {
      "inputs": [],
      "name": "message",
      "outputs": [
        {
          "internalType": "string",
          "name": "",
          "type": "string"
        }
      ],
      "stateMutability": "view",
      "type": "function"
    },
    {
      "inputs": [],
      "name": "handleHelloWorld",
      "outputs": [
        {
          "internalType": "string",
          "name": "",
          "type": "string"
        }
      ],
      "stateMutability": "view",
      "type": "function"
    }
  ],
  "bytecode": "0x60c0604052600b60809081526a12195b1b1bc815dbdc9b1960aa1b60a0525f9061002990826100d3565b50348015610035575f5ffd5b5061018d565b634e487b7160e01b5f52604160045260245ffd5b600181811c9082168061006357607f821691505b60208210810361008157634e487b7160e01b5f52602260045260245ffd5b50919050565b601f8211156100ce57805f5260205f20601f840160051c810160208510156100ac5750805b601f840160051c820191505b818110156100cb575f81556001016100b8565b50505b505050565b81516001600160401b038111156100ec576100ec61003b565b610100816100fa845461004f565b84610087565b6020601f821160018114610132575f831561011b5750848201515b5f19600385901b1c1916600184901b1784556100cb565b5f84815260208120601f198516915b828110156101615787850151825560209485019460019092019101610141565b508482101561017e57868401515f19600387901b60f8161c191681555b50505050600190811b01905550565b61021b8061019a5f395ff3fe608060405234801561000f575f5ffd5b5060043610610034575f3560e01c80631ef12b4f14610038578063e21f37ce14610056575b5f5ffd5b61004061005e565b60405161004d9190610178565b60405180910390f35b6100406100ed565b60605f805461006c906101ad565b80601f0160208091040260200160405190810160405280929190818152602001828054610098906101ad565b80156100e35780601f106100ba576101008083540402835291602001916100e3565b820191905f5260205f20905b8154815290600101906020018083116100c657829003601f168201915b5050505050905090565b5f80546100f9906101ad565b80601f0160208091040260200160405190810160405280929190818152602001828054610125906101ad565b80156101705780601f1061014757610100808354040283529160200191610170565b820191905f5260205f20905b81548152906001019060200180831161015357829003601f168201915b505050505081565b602081525f82518060208401528060208501604085015e5f604082850101526040601f19601f83011684010191505092915050565b600181811c908216806101c157607f821691505b6020821081036101df57634e487b7160e01b5f52602260045260245ffd5b5091905056fea2646970667358221220cca043b2a20bdb92d674c485361793f29b9ece9e04188298094b07a73e81136d64736f6c634300081c0033",
  "immutableReferences": {},
  "source": "// SPDX-License-Identifier: MIT\npragma solidity 0.8.28;\n\ncontract HelloWorld {\n  string public message = \"Hello World\";\n\n  function handleHelloWorld() public view returns (string memory) {\n    return message;\n  }\n}",
  "sourcePath": "/home/filipanselmo/github-projects/hello-truffle/contracts/HelloWorld.sol",
  "compiler": {
    "name": "solc",
    "version": "0.8.28+commit.7893614a.Emscripten.clang"
  },
  "schemaVersion": "3.4.16",
  "updatedAt": "2024-12-29T23:26:58.022Z",
  "devdoc": {
    "kind": "dev",
    "methods": {},
    "version": 1
  },
  "userdoc": {
    "kind": "user",
    "methods": {},
    "version": 1
  }
}